:020000040800F2
:1000000000040010E90B010841FE00084FFE000843
:1000100055FE00085BFE000861FE000800000000BD
:100020000000000000000000000000002111000896
:1000300067FE00080000000061130008C9130008F3
:10004000390C0108390C0108390C0108390C010878
:10005000390C0108390C0108390C010875FE00083B
:10006000390C0108390C0108390C0108390C010858
:10007000390C0108390C010885FE000899FE0008BA
:10008000390C0108390C0108390C0108390C010838
:10009000390C0108390C0108390C0108390C010828
:1000A000390C0108390C0108390C0108390C010818
:1000B000ADFE0008390C0108390C0108390C0108A3
:1000C000390C0108C1FE0008D5FE0008390C0108F2
:1000D000390C0108390C0108390C0108390C0108E8
:1000E000390C0108390C0108390C0108390C0108D8
:1000F000390C0108390C0108390C0108390C0108C8
:10010000390C0108390C0108390C0108E9FE000816
:10011000390C0108390C0108390C0108390C0108A7
:10012000390C0108390C0108390C0108390C010897
:10013000390C0108390C0108390C0108390C010887
:10014000390C0108390C0108390C0108FDFE0008C2
:10015000390C0108390C0108390C0108390C010867
:10016000390C0108390C0108390C0108390C010857
:10017000390C0108390C01080000000000000000E3
:08018000390C0108390C0108DB
:1001900010B5054C237833B9044B13B10448AFF3C1
:1001A00000800123237010BD9007001000000000A4
:1001B00080CD030808B5034B1BB103490348AFF3D7
:1001C000008008BD000000009407001080CD0308E7
:1001D00001F0FF01102A2BDB10F0070F08D010F8F8
:1001E000013B013A8B422DD010F0070F42B3F6D1FC
:1001F000F0B441EA012141EA014122F007047FF015
:1002000000070023F0E80256083C85EA010586EA6B
:10021000010685FA47F5A3FA87F586FA47F6A5FAA7
:1002200087F68EB9EED1F0BC01F0FF0102F00702B3
:1002300032B110F8013B013A83EA010313B1F8D15E
:100240000020704701387047002D06BF354603383F
:10025000073815F0010F07D1013015F4807F02BF78
:10026000013015F4C03F0130F0BC0138704700BFC9
:1002700010F8012B11F8013B012A28BF9A42F7D050
:10028000D01A7047034613F8012B002AFBD1181A25
:10029000013870477BB972B90029BEBF00204FF00A
:1002A000004106E008BF00281CBF6FF000414FF07E
:1002B000FF3000F0B9B9ADF1080C6DE904CE0029AA
:1002C00009DB002B1ADB00F04DF8DDF804E0DDE976
:1002D000022304B07047404261EB4101002B1BDB5D
:1002E00000F040F8DDF804E0DDE9022304B040420C
:1002F00061EB4101524263EB43037047524263EBAF
:10030000430300F02FF8DDF804E0DDE9022304B038
:10031000404261EB41017047524263EB430300F0FE
:1003200021F8DDF804E0DDE9022304B0524263EB7A
:100330004303704753B94AB9002908BF00281CBFBE
:100340004FF0FF314FF0FF3000F06EB9ADF1080C07
:100350006DE904CE00F006F8DDF804E0DDE90223E3
:1003600004B070472DE9F047089D04468C46002BE9
:1003700040F083808A42174647D9B2FA82F242B1EE
:10038000C2F1200024FA00F09140974040EA010CAD
:1003900094404FEA1748230CBCFBF8F61FFA87FE7F
:1003A00008FB16C143EA014306FB0EF1994209D945
:1003B000FB1806F1FF3080F01981994240F2168156
:1003C000023E3B445B1AA4B2B3FBF8F008FB1033C7
:1003D00044EA034400FB0EFEA64509D93C1900F18E
:1003E000FF3380F00581A64540F2028102383C448B
:1003F00040EA0640A4EB0E0400261DB1D4400023C1
:10040000C5E900433146BDE8F08702B9FFDEB2FA24
:1004100082F2002A50D1CB1B4FEA174E1FFA87F801
:100420000126B3FBFEFC210C0EFB1C3341EA034109
:1004300008FB0CF38B4207D979180CF1FF3002D27C
:100440008B4200F2E9808446C91AA3B2B1FBFEF0E8
:100450000EFB101143EA014408FB00F8A04507D940
:100460003C1900F1FF3302D2A04500F2D9801846B2
:10047000A4EB080440EA0C40BFE78B4209D9002DE9
:1004800000F0B1800026C5E9000130463146BDE8E4
:10049000F087B3FA83F6002E4AD18B4202D3824210
:1004A00000F2B880841A61EB030101208C46002D14
:1004B000A8D0C5E9004CA5E7C2F1200320FA03F655
:1004C000974001FA02F04FEA174ED9403043030C2F
:1004D000B1FBFEF61FFA87F80EFB161143EA014343
:1004E00006FB08F1994204FA02F409D9FB1806F157
:1004F000FF3C80F08D80994240F28A80023E3B446E
:100500005B1A81B2B3FBFEF00EFB103341EA0341EC
:1005100000FB08F38B4207D9791800F1FF3C73D236
:100520008B4271D902383944CB1A40EA064678E743
:10053000C6F1200C03FA06F422FA0CF31C4320FA4D
:100540000CF701FA06F34FEA144E21FA0CF11F439F
:100550003B0CB1FBFEF91FFA84F80EFB191143EABC
:10056000014109FB08FA8A4502FA06F200FA06F38D
:1005700008D9611809F1FF3048D28A4546D9A9F156
:1005800002092144A1EB0A01BFB2B1FBFEF00EFB50
:10059000101147EA014700FB08F8B84507D9E719E9
:1005A00000F1FF312ED2B8452CD90238274440EA59
:1005B0000940A7EB0807A0FB02894F45C6464946FC
:1005C0001AD317D05DB1B3EB0E0267EB010707FA40
:1005D0000CFCF2404CEA0202F740C5E90027002675
:1005E0003146BDE8F0872E4628460BE70646E9E689
:1005F0001846FDE64345E5D2B8EB020E69EB04016F
:100600000138DFE70846D2E760468DE78146B9E763
:10061000664675E730464AE7ACF1020C394413E709
:1006200002383C4424E700BF704700BF80B500AFEC
:10063000034B01221A7002F0B7F900BF80BD00BF62
:10064000B019001080B582B000AF78607B681946A1
:10065000786813F0ABF97B6818460837BD4680BD53
:1006600080B500AF0F2206214FF4007003F0C4FCE8
:10067000FFF7DCFFFEE7000080B582B000AF7860D6
:10068000054A7B681A607B68184600F0A5FA7B680B
:1006900018460837BD4680BD48F7030880B582B0CC
:1006A00000AF78607868FFF7E7FF3421786839F0A9
:1006B00099FC7B6818460837BD4680BD80B582B07E
:1006C00000AF7860054A7B681A607B68184600F0C6
:1006D00083FA7B6818460837BD4680BDCCF703080F
:1006E00080B582B000AF78607868FFF7E7FFB82187
:1006F000786839F077FC7B6818460837BD4680BDBE
:1007000080B582B000AF786039607B68012B1BD167
:100710003B684FF6FF72934216D11748FFF792FFDE
:10072000164B01220521164800F006F9124A144919
:10073000144812F007FC104A1149134810F0F8FC55
:100740000D49124810F07AFA7B68002B10D13B68F3
:100750004FF6FF7293420BD10C48FFF78DFF0A480A
:10076000FFF7ACFF074812F029FC054800F012F92A
:1007700000BF0837BD4680BDAC07001098CD030808
:10078000841800108C180010C41800107C19001078
:1007900080B500AF4FF6FF710120FFF7B1FF80BDBC
:1007A00080B500AF4FF6FF710020FFF7A9FF80BDB5
:1007B00080B483B000AF7860044A7B681A607B68BD
:1007C00018460C37BD465DF8047B704798F5030862
:1007D00080B582B000AF7860064A7B681A607B689B
:1007E0005B68184601F0B0FB7B6818460837BD46C9
:1007F00080BD00BF98F5030880B584B000AF786075
:100800007B681846FFF7D4FF0E4A7B681A60012008
:1008100000F0C7FF02467B685A607B685B68002B6C
:100820000AD14FF0500383F31188BFF36F8FBFF3EA
:100830004F8FFB6000BFFEE77B6818461037BD4650
:1008400080BD00BF80F5030880B584B000AF78603C
:1008500039607B685B683968184601F04BFAF860CC
:10086000FB68012B0CBF01230023DBB218461037B5
:10087000BD4680BD80B584B000AF78607B685868A5
:1008800000230022002100F0BFFFF860FB68012B6D
:100890000CBF01230023DBB218461037BD4680BDD4
:1008A00080B582B000AF786039607B683A681A60C2
:1008B0007B681B681B681B687A6812684FF0FF3101
:1008C000104698477B6818460837BD4680BD80B5FE
:1008D00082B000AF78607B681B681B6804331B68BC
:1008E0007A681268104698477B6818460837BD46F4
:1008F00080BD000080B582B000AF7860054A7B689B
:100900001A607B681846FFF763FF7B681846083754
:10091000BD4680BD80F5030880B582B000AF786029
:100920007868FFF7E7FF0821786839F05BFB7B68A0
:1009300018460837BD4680BD80B586B000AFF86068
:10094000B9607A603B60124AFB681A6000227968DD
:10095000B86800F0A9FE0246FB685A60FB685B6855
:100960003968184601F03CFCFB685B68002B0AD133
:100970004FF0500383F31188BFF36F8FBFF34F8F96
:100980007B6100BFFEE7FB6818461837BD4680BD97
:10099000FCF5030880B582B000AF7860064A7B683A
:1009A0001A607B685B68184601F0CEFA7B681846CF
:1009B0000837BD4680BD00BFFCF5030880B582B096
:1009C00000AF78607868FFF7E5FF0821786839F0B4
:1009D00009FB7B6818460837BD4680BD80B584B0EA
:1009E00000AF786039607B68586800234FF0FF32B1
:1009F000396800F009FFF860FB68012B0CBF012388
:100A00000023DBB218461037BD4680BD80B586B0E6
:100A100000AFF860B9607A60FB68586800237A68B4
:100A2000B96800F0F1FE78617B69012B0CBF0123EE
:100A30000023DBB218461837BD4680BD80B586B0AE
:100A400000AFF860B9607A60FB685B687A68B96883
:100A5000184601F06FF878617B69012B0CBF012308
:100A60000023DBB218461837BD4680BD80B586B07E
:100A700000AFF860B9607A60FB68586800237A6854
:100A8000B96800F0BFFF78617B69012B0CBF0123BF
:100A90000023DBB218461837BD4680BD80B584B050
:100AA00000AF78607B68FB600023002B04D078687F
:100AB00000F0FDF8034604E07868FFF7E3FB034627
:100AC00000BF18461037BD4680BD000080B584B019
:100AD00000AFF860B9603B601346FB800D4AFB68CD
:100AE0001A60FB680833B968184639F0B1FBFB6837
:100AF000FA881A84FB683A685A62FB68002283F815
:100B00002820FB68002283F82920FB68184610374C
:100B1000BD4680BD38F60308B0B586B002AF786038
:100B20000024254B1B78DBB2002B1AD007F10803F9
:100B300022491846FFF7B4FE7B6893F82830002B53
:100B400002D00024002504E07B68012283F82820DD
:100B5000012507F108031846FFF7B9FE012D25D13D
:100B60000AE07B6893F82830002B01D000241DE0B8
:100B70007B68012283F828207B680833184639F007
:100B80003EFB7B68198C7B685B6A7A680432019251
:100B900000937B680A460146094801F0D2FBF860E1
:100BA000FB68012B0CBF01230023DCB2234618464F
:100BB0001037BD46B0BD00BFB0190010B419001009
:100BC000110C000880B483B000AF786000BF0C3710
:100BD000BD465DF8047B704780B582B000AF786099
:100BE0000A4A7B681A607B685B68184601F008FD5A
:100BF0007B684FF0FF325A607B680833184639F043
:100C0000F8FA7B6818460837BD4680BD38F60308F9
:100C100080B584B000AF78607B68FB60FB681B68C0
:100C200008331B68F8689847FB681B680C331B681F
:100C3000F8689847FB685B68184601F0E1FC00BF64
:100C40001037BD4680BD80B582B000AF7860396096
:100C50007B6893F8293083F00103DBB2002B08D0C6
:100C60007B68012283F8292001F0B4FF02467B68EB
:100C7000DA627B682C333968184601F051FD00BFF9
:100C80000837BD4680BD80B483B000AF786039605E
:100C90007B681A783B681B789A420CBF01230023BB
:100CA000DBB218460C37BD465DF8047B704780B553
:100CB00084B000AF78600023FB607A68FB6813445F
:100CC0000022FA7207F10B0211461846FFF7DBFF0C
:100CD000034683F00103DBB2002B03D0FB68013332
:100CE000FB60EAE7FB6818461037BD4680BD90B54B
:100CF00085B000AFF860B9607A60FC68F86839F0D8
:100D000032FA03467A681946204639F07AFABB6807
:100D1000002B06D0B868FFF7C1FE0246BB6813443B
:100D200001E0BB68013B1A46B968F86800F005F8B5
:100D3000FB6818461437BD4690BD80B584B000AF3F
:100D4000F860B9607A607A68B968F86800F004F809
:100D500000BF1037BD4680BD90B587B000AFF860CA
:100D6000B9607A603B7023467A68B968F86800F029
:100D700019F800BF1C37BD4690BDB0B582B000AFBA
:100D8000786039607C683B1D184600F063F82A469D
:100D90003968204600F068F8034618460837BD4613
:100DA000B0BD000080B586B000AFF860B9607A6071
:100DB0003B70B86800F03EF80346002B05D0BA68D7
:100DC0007B689A4201D0012300E00023002B02D06F
:100DD000174839F0BAF97968B868FFF7CEFF0346CB
:100DE0007B617B690F2B10D907F114030022194690
:100DF000F86839F0C1F903461946F86839F0AFF9D7
:100E00007B691946F86839F0B0F9F86839F0A9F942
:100E100003467A68B968184639F0E6F97B691946DD
:100E2000F86839F0A4F900BF1837BD4680BD00BF8F
:100E3000ACCD030880B483B000AF78607B68002B32
:100E40000CBF01230023DBB218460C37BD465DF80A
:100E5000047B704780B483B000AF786018460C37CD
:100E6000BD465DF8047B704780B485B000AFF86084
:100E7000B9603A71BA68FB68D31A18461437BD4690
:100E80005DF8047B7047000080B582B000AF7860E9
:100E900039607B68012B07D13B684FF6FF729342A4
:100EA00002D10948FFF7A8FC7B68002B07D13B68FB
:100EB0004FF6FF72934202D10348FFF71BFD00BFBC
:100EC0000837BD4680BD00BFB419001080B500AF23
:100ED0004FF6FF710120FFF7D7FF80BD80B500AF4F
:100EE0004FF6FF710020FFF7CFFF80BD80B483B0C5
:100EF00000AF78607B6803F108027B685A607B680A
:100F00004FF0FF329A607B6803F108027B68DA6079
:100F10007B6803F108027B681A617B6800221A6013
:100F200000BF0C37BD465DF8047B704780B483B0CA
:100F300000AF78607B6800221A6100BF0C37BD46A5
:100F40005DF8047B704780B485B000AF786039608D
:100F50007B685B68FB603B68FA685A60FB689A686C
:100F60003B689A60FB689B683A685A60FB683A681D
:100F70009A603B687A681A617B681B685A1C7B68B8
:100F80001A6000BF1437BD465DF8047B704780B41B
:100F900085B000AF786039603B681B68BB60BB6898
:100FA000B3F1FF3F03D17B681B69FB600CE07B68FA
:100FB0000833FB6002E0FB685B68FB60FB685B6812
:100FC0001B68BA689A42F6D2FB685A683B685A6056
:100FD0003B685B683A689A603B68FA689A60FB68AD
:100FE0003A685A603B687A681A617B681B685A1CC9
:100FF0007B681A6000BF1437BD465DF8047B7047FC
:1010000080B485B000AF78607B681B69FB607B684B
:101010005B687A6892689A607B689B687A685268B5
:101020005A60FB685B687A689A4203D17B689A6869
:10103000FB685A607B6800221A61FB681B685A1EB5
:10104000FB681A60FB681B6818461437BD465DF8DC
:10105000047B704780B485B000AFF860B9607A60F7
:10106000FB68043BFB60FB684FF080721A60FB6812
:10107000043BFB60BB6823F00102FB681A60FB685D
:10108000043BFB600C4AFB681A60FB68143BFB6086
:101090007A68FB681A60FB68043BFB60FB686FF0D2
:1010A00002021A60FB68203BFB60FB68184614379D
:1010B000BD465DF8047B7047BD10000880B485B064
:1010C00000AF00237B60124B1B68B3F1FF3F0AD0D7
:1010D0004FF0500383F31188BFF36F8FBFF34F8F2F
:1010E000FB6000BFFEE74FF0500383F31188BFF3AE
:1010F0006F8FBFF34F8FBB6000BF00BF7B68002BBB
:10110000FCD000BF00BF1437BD465DF8047B7047BC
:1011100000040010000000000000000000000000BB
:10112000074B19680868B0E8F04F80F30988BFF3EF
:101130006F8F4FF0000080F311887047AFF300808D
:10114000C419001000BF00BF4FF0000080F31488E6
:1011500062B661B6BFF34F8FBFF36F8F00DF00BF82
:1011600000BF000080B586B000AF464B1B68464A02
:1011700093420AD14FF0500383F31188BFF36F8F6E
:10118000BFF34F8F3B6100BFFEE73E4B1B683F4AFA
:1011900093420AD14FF0500383F31188BFF36F8F4E
:1011A000BFF34F8FFB6000BFFEE7394B7B617B696C
:1011B0001B78DBB27B607B69FF221A707B691B782E
:1011C000DBB2FB70FB78DBB203F05003DAB2314BD9
:1011D0001A70314B07221A6009E02F4B1B68013B44
:1011E0002D4A1360FB78DBB25B00DBB2FB70FB784F
:1011F000DBB203F08003802BEFD0274B1B68C3F1D9
:101200000703042B0AD04FF0500383F31188BFF378
:101210006F8FBFF34F8FBB6000BFFEE71E4B1B6895
:101220001B021D4A13601C4B1B6803F4E0631A4A3F
:1012300013607B68DAB27B691A70184B1B68174A17
:1012400043F470031360154B1B68144A43F070435A
:10125000136000F0DBF8124B00221A6000F0FAF87D
:10126000104B1B680F4A43F040431360FFF76CFFBD
:1012700001F08CFDFFF722FF002318461837BD460A
:1012800080BD00BF00ED00E071C20F4170C20F4190
:1012900000E400E0BC190010C019001020ED00E0CF
:1012A0000004001034EF00E080B483B000AF4FF0D2
:1012B000500383F31188BFF36F8FBFF34F8F7B60B1
:1012C00000BF0F4B1B6801330D4A13600C4B1B68AA
:1012D000012B0FD10B4B1B68DBB2002B0AD04FF058
:1012E000500383F31188BFF36F8FBFF34F8F3B60C1
:1012F00000BFFEE700BF0C37BD465DF8047B7047BA
:101300000004001004ED00E080B483B000AF124B85
:101310001B68002B0AD14FF0500383F31188BFF3F1
:101320006F8FBFF34F8F7B6000BFFEE70A4B1B68D8
:10133000013B094A1360084B1B68002B05D10023B1
:101340003B603B6883F3118800BF00BF0C37BD468C
:101350005DF8047B704700BF00040010000000002F
:10136000EFF30980BFF36F8F154B1A681EF0100F53
:1013700008BF20ED108A20E9F04F10602DE9090028
:101380004FF0500080F31188BFF34F8FBFF36F8F82
:1013900001F0FCFC4FF0000080F3118809BC1968D3
:1013A0000868B0E8F04F1EF0100F08BFB0EC108ACC
:1013B00080F30988BFF36F8F704700BFAFF30080E1
:1013C000C419001000BF00BF80B582B000AF4FF05D
:1013D000500383F31188BFF36F8FBFF34F8F7B6090
:1013E00000BF01F02BFC0346002B03D0064B4FF04F
:1013F00080521A6000233B603B6883F3118800BF72
:1014000000BF0837BD4680BD04ED00E080B400AFEA
:101410000B4B00221A600B4B00221A600A4B1B6810
:101420000A4AA2FB03239B09094A013B1360044BB0
:1014300007221A6000BFBD465DF8047B704700BFFD
:1014400010E000E018E000E054050010D34D6210F9
:1014500014E000E0DFF80C00016841F47001016065
:10146000704700BF88ED00E080B485B000AFEFF3B7
:101470000583FB60FB680F2B14D9174AFB681344E4
:101480001B78FB72154B1B78FA7A9A420AD24FF0FE
:10149000500383F31188BFF36F8FBFF34F8F7B60CF
:1014A00000BFFEE70E4B1B6803F4E0620D4B1B68A8
:1014B0009A420AD94FF0500383F31188BFF36F8F1C
:1014C000BFF34F8F3B6000BFFEE700BF1437BD4640
:1014D0005DF8047B704700BFF0E300E0BC1900102A
:1014E0000CED00E0C019001080B584B000AF78604A
:1014F00039607B68FB60FB68002B0AD14FF050031A
:1015000083F31188BFF36F8FBFF34F8FBB6000BFB2
:10151000FEE7FFF7C9FEFB681A68FB68DB6BF9683A
:10152000096C01FB03F31A44FB689A60FB68002214
:101530009A63FB681A68FB685A60FB681A68FB6864
:10154000DB6B013BF968096C01FB03F31A44FB6890
:10155000DA60FB68FF2283F84420FB68FF2283F8EF
:1015600045203B68002B14D1FB681B69002B1AD067
:10157000FB681033184601F0ABFC0346002B12D079
:101580000C4B4FF080521A60BFF34F8FBFF36F8F39
:1015900009E0FB6810331846FFF7A8FCFB6824330A
:1015A0001846FFF7A3FCFFF7AFFE012318461037DC
:1015B000BD4680BD04ED00E080B58EB002AFF8609E
:1015C000B9607A603B60FB68002B0AD14FF0500392
:1015D00083F31188BFF36F8FBFF34F8FBB6200BFE0
:1015E000FEE73B68002B0AD14FF0500383F31188CC
:1015F000BFF36F8FBFF34F8F7B6200BFFEE77B6847
:10160000002B02D0BB68002B01D0012300E0002397
:10161000002B0AD14FF0500383F31188BFF36F8F73
:10162000BFF34F8F3B6200BFFEE77B68002B02D108
:10163000BB68002B01D1012300E00023002B0AD15D
:101640004FF0500383F31188BFF36F8FBFF34F8FB9
:10165000FB6100BFFEE750237B617B69502B0AD002
:101660004FF0500383F31188BFF36F8FBFF34F8F99
:10167000BB6100BFFEE77B693B68FB62FB6A002B36
:101680000DD0FB6A012283F8462097F83820FB6AC8
:10169000009313467A68B968F86800F045F8FB6A69
:1016A00018463037BD4680BD80B58AB002AFF860BD
:1016B000B9601346FB71FB68002B0AD14FF0500351
:1016C00083F31188BFF36F8FBFF34F8F3B6100BF70
:1016D000FEE7BB68002B02D10023FB6104E0FB683E
:1016E000BA6802FB03F3FB61FB695033184602F052
:1016F00041FAB861BB69002B11D0BB697B617B6982
:1017000050337B61BB69002283F84620FA79BB69BC
:10171000009313467A69B968F86800F005F8BB6968
:1017200018462037BD4680BD80B584B000AFF86054
:10173000B9607A60FB70BB68002B03D1BB69BA69E2
:101740001A6002E0BB697A681A60BB69FA68DA63FA
:10175000BB69BA681A640121B869FFF7C5FEBB69A5
:10176000FA7883F84C2000BF1037BD4680BD80B5A5
:1017700082B000AF78607B68002B0ED07B680022BF
:101780009A607B6800221A607B680022DA6000237E
:1017900000220021786800F037F800BF0837BD4606
:1017A00080BD80B586B000AF0346FB7101237B612D
:1017B00000233B61FB791A4639697869FFF774FFAA
:1017C000F860F868FFF7D3FFFB6818461837BD4686
:1017D00080BD80B588B002AF03463960FB7101233C
:1017E0007B6100233B61FB7900933B6800223969F0
:1017F0007869FFF7E1FEF860F868FFF7B8FFFB686B
:1018000018461837BD4680BD80B58EB000AFF86071
:10181000B9607A603B6000237B63FB683B633B6B92
:10182000002B0AD14FF0500383F31188BFF36F8F61
:10183000BFF34F8FBB6200BFFEE7BB68002B03D135
:101840003B6B1B6C002B01D1012300E00023002B1C
:101850000AD14FF0500383F31188BFF36F8FBFF3AA
:101860004F8F7B6200BFFEE73B68022B03D13B6BCF
:10187000DB6B012B01D1012300E00023002B0AD1F7
:101880004FF0500383F31188BFF36F8FBFF34F8F77
:101890003B6200BFFEE701F011FD0346002B02D1C1
:1018A0007B68002B01D1012300E00023002B0AD12B
:1018B0004FF0500383F31188BFF36F8FBFF34F8F47
:1018C000FB6100BFFEE7FFF7EFFC3B6B9A6B3B6BE6
:1018D000DB6B9A4202D33B68022B29D13A68B96884
:1018E000386B00F06CFBF8623B6B5B6A002B10D02E
:1018F0003B6B2433184601F0EBFA0346002B13D060
:101900003F4B4FF080521A60BFF34F8FBFF36F8F82
:101910000AE0FB6A002B07D0394B4FF080521A6067
:10192000BFF34F8FBFF36F8FFFF7EEFC012363E030
:101930007B68002B03D1FFF7E7FC00235CE07B6BA7
:10194000002B06D107F11403184601F049FB0123CF
:101950007B63FFF7D9FC01F093F8FFF7A5FC3B6B25
:1019600093F844305BB2B3F1FF3F03D13B6B0022ED
:1019700083F844203B6B93F845305BB2B3F1FF3FF3
:1019800003D13B6B002283F84520FFF7BDFC3A1DD5
:1019900007F114031146184601F038FB0346002BEB
:1019A00024D1386B00F003FC0346002B18D03B6BAE
:1019B00010337A681146184601F066FA386B00F069
:1019C0008EFB01F06BF80346002B7FF47CAF0C4BD1
:1019D0004FF080521A60BFF34F8FBFF36F8F72E7E3
:1019E000386B00F07CFB01F059F86CE7386B00F0C5
:1019F00076FB01F053F8002318463837BD4680BD0A
:101A000004ED00E080B58EB000AFF860B9607A6098
:101A10003B60FB683B633B6B002B0AD14FF05003EC
:101A200083F31188BFF36F8FBFF34F8F7B6200BFCB
:101A3000FEE7BB68002B03D13B6B1B6C002B01D175
:101A4000012300E00023002B0AD14FF0500383F361
:101A50001188BFF36F8FBFF34F8F3B6200BFFEE76C
:101A60003B68022B03D13B6BDB6B012B01D10123C4
:101A700000E00023002B0AD14FF0500383F31188BC
:101A8000BFF36F8FBFF34F8FFB6100BFFEE7FFF720
:101A9000EBFCEFF311824FF0500383F31188BFF397
:101AA0006F8FBFF34F8FBA617B61BB69FB623B6B8A
:101AB0009A6B3B6BDB6B9A4202D33B68022B2CD1B7
:101AC0003B6B93F8453087F82B303A68B968386B30
:101AD00000F075FA97F92B30B3F1FF3F12D13B6B51
:101AE0005B6A002B16D03B6B2433184601F0F0F9EB
:101AF0000346002B0ED07B68002B0BD07B680122A5
:101B00001A6007E097F82B300133DBB25AB23B6B17
:101B100083F8452001237B6301E000237B63FB6A9C
:101B20003B613B6983F3118800BF7B6B18463837F4
:101B3000BD4680BD80B58CB000AFF860B9607A60FA
:101B40000023FB62FB68BB62BB6A002B0AD14FF02B
:101B5000500383F31188BFF36F8FBFF34F8F3B6246
:101B600000BFFEE7BB68002B03D1BB6A1B6C002BD8
:101B700001D1012300E00023002B0AD14FF05003D4
:101B800083F31188BFF36F8FBFF34F8FFB6100BFEB
:101B9000FEE701F093FB0346002B02D17B68002B8C
:101BA00001D1012300E00023002B0AD14FF05003A4
:101BB00083F31188BFF36F8FBFF34F8FBB6100BFFB
:101BC000FEE7FFF771FBBB6A9B6B7B627B6A002BB6
:101BD0001FD0B968B86A00F05CFA7B6A5A1EBB6A0B
:101BE0009A63BB6A1B69002B0FD0BB6A103318467F
:101BF00001F06EF90346002B07D03D4B4FF08052A9
:101C00001A60BFF34F8FBFF36F8FFFF77DFB012388
:101C100069E07B68002B03D1FFF776FB002362E0CD
:101C2000FB6A002B06D107F11003184601F0D8F922
:101C30000123FB62FFF768FB00F022FFFFF734FB94
:101C4000BB6A93F844305BB2B3F1FF3F03D1BB6A88
:101C5000002283F84420BB6A93F845305BB2B3F1AD
:101C6000FF3F03D1BB6A002283F84520FFF74CFBFE
:101C70003A1D07F110031146184601F0C7F9034653
:101C8000002B23D1B86A00F07CFA0346002B17D052
:101C9000BB6A24337A681146184601F0F5F8B86A31
:101CA00000F01DFA00F0FAFE0346002B89D1104B1C
:101CB0004FF080521A60BFF34F8FBFF36F8F80E7F2
:101CC000B86A00F00CFA00F0E9FE7AE7B86A00F0B2
:101CD00006FA00F0E3FEB86A00F053FA0346002B60
:101CE0003FF46FAF002318463037BD4680BD00BFBC
:101CF00004ED00E080B58EB000AF7860396000235D
:101D00007B637B68FB6200233B63FB6A002B0AD189
:101D10004FF0500383F31188BFF36F8FBFF34F8FE2
:101D20003B6200BFFEE7FB6A1B6C002B0AD04FF042
:101D3000500383F31188BFF36F8FBFF34F8FFB61A5
:101D400000BFFEE701F0BAFA0346002B02D13B6860
:101D5000002B01D1012300E00023002B0AD14FF01A
:101D6000500383F31188BFF36F8FBFF34F8FBB61B5
:101D700000BFFEE7FFF798FAFB6A9B6BBB62BB6A8A
:101D8000002B24D0BB6A5A1EFB6A9A63FB6A1B684D
:101D9000002B04D101F050FC0246FB6A9A60FB6AFA
:101DA0001B69002B0FD0FB6A1033184601F090F826
:101DB0000346002B07D0544B4FF080521A60BFF3FC
:101DC0004F8FBFF36F8FFFF79FFA012397E03B68B8
:101DD000002B11D13B6B002B0AD04FF0500383F343
:101DE0001188BFF36F8FBFF34F8F7B6100BFFEE79A
:101DF000FFF78AFA002382E07B6B002B06D107F104
:101E00000C03184601F0ECF801237B63FFF77CFA22
:101E100000F036FEFFF748FAFB6A93F844305BB2F5
:101E2000B3F1FF3F03D1FB6A002283F84420FB6A31
:101E300093F845305BB2B3F1FF3F03D1FB6A002258
:101E400083F84520FFF760FA3A4607F10C03114684
:101E5000184601F0DBF80346002B32D1F86A00F097
:101E600090F90346002B26D0FB6A1B68002B09D192
:101E7000FFF71AFAFB6A9B68184601F03DFA3863CF
:101E8000FFF742FAFB6A24333A681146184600F01D
:101E9000FBFFF86A00F023F900F000FE0346002B78
:101EA0007FF468AF184B4FF080521A60BFF34F8F2A
:101EB000BFF36F8F5EE7F86A00F011F900F0EEFDF6
:101EC00058E7F86A00F00BF900F0E8FDF86A00F056
:101ED00058F90346002B3FF44DAF3B6B002B0DD060
:101EE000FFF7E2F9F86A00F052F87862FB6A9B6843
:101EF000796A184601F006FBFFF706FA0023184638
:101F00003837BD4680BD00BF04ED00E080B584B029
:101F100000AF78607B68002B0AD14FF0500383F349
:101F20001188BFF36F8FBFF34F8FBB6000BFFEE719
:101F3000FFF7BAF97B689B6BFB60FFF7E5F9FB687D
:101F400018461037BD4680BD80B584B000AF7860BC
:101F50007B68FB60FB68002B0AD14FF0500383F3D2
:101F60001188BFF36F8FBFF34F8FBB6000BFFEE7D9
:101F7000F86800F05FF9FB6893F84630002B02D157
:101F8000F86801F0BBFE00BF1037BD4680BD80B4CD
:101F900085B000AF78607B685B6A002B06D07B68F9
:101FA0001B6B1B68C3F10703FB6001E00023FB60B0
:101FB000FB6818461437BD465DF8047B704780B552
:101FC00086B000AFF860B9607A6000237B61FB687F
:101FD0009B6B3B61FB681B6C002B0DD1FB681B6886
:101FE000002B4DD1FB689B68184601F005FA78611B
:101FF000FB6800229A6043E07B68002B19D1FB68E4
:102000005868FB681B6C1A46B96839F055F8FB68CC
:102010005A68FB681B6C1A44FB685A60FB685A6874
:10202000FB689B689A422BD3FB681A68FB685A606E
:1020300026E0FB68D868FB681B6C1A46B96839F063
:102040003BF8FB68DA68FB681B6C5B421A44FB6870
:10205000DA60FB68DA68FB681B689A4207D2FB68A3
:102060009A68FB681B6C5B421A44FB68DA607B6809
:10207000022B05D13B69002B02D03B69013B3B6140
:102080003B695A1CFB689A637B6918461837BD4642
:1020900080BD80B582B000AF786039607B681B6C12
:1020A000002B18D07B68DA687B681B6C1A447B684D
:1020B000DA607B68DA687B689B689A4203D37B6846
:1020C0001A687B68DA607B68D9687B681B6C1A4683
:1020D000386838F0F1FF00BF0837BD4680BD80B5D5
:1020E00084B000AF7860FFF7DFF87B6893F8453085
:1020F000FB7311E07B685B6A002B12D07B68243392
:10210000184600F0E5FE0346002B01D000F0E0FF8A
:10211000FB7B013BDBB2FB7397F90F30002BE9DC53
:1021200000E000BF7B68FF2283F84520FFF7ECF852
:10213000FFF7BAF87B6893F84430BB7311E07B6813
:102140001B69002B12D07B681033184600F0C0FECC
:102150000346002B01D000F0BBFFBB7B013BDBB291
:10216000BB7397F90E30002BE9DC00E000BF7B6801
:10217000FF2283F84420FFF7C7F800BF1037BD46A1
:1021800080BD80B584B000AF7860FFF78DF87B68C4
:102190009B6B002B02D10123FB6001E00023FB605D
:1021A000FFF7B2F8FB6818461037BD4680BD80B512
:1021B00084B000AF7860FFF777F87B689A6B7B6834
:1021C000DB6B9A4202D10123FB6001E00023FB603C
:1021D000FFF79AF8FB6818461037BD4680BD00002F
:1021E00080B485B000AF786039600023FB6014E0F4
:1021F0000F4AFB6852F83330002B0BD10C49FB68B7
:102200003A6841F833200A4AFB68DB0013447A68D5
:102210005A6006E0FB680133FB60FB68072BE7D9D7
:1022200000BF00BF1437BD465DF8047B704700BF98
:10223000084E001080B485B000AF78600023FB60CA
:1022400016E0104AFB68DB0013445B687A689A4228
:102250000BD10C4AFB68002142F83310094AFB6895
:10226000DB00134400225A6006E0FB680133FB6088
:10227000FB68072BE5D900BF00BF1437BD465DF8EA
:10228000047B7047084E001080B58EB004AFF86034
:10229000B9607A603B607B6B002B0AD14FF0500332
:1022A00083F31188BFF36F8FBFF34F8F3B6200BF83
:1022B000FEE7BB6B002B0AD14FF0500383F311886C
:1022C000BFF36F8FBFF34F8FFB6100BFFEE7C423E7
:1022D0003B613B69C42B0AD04FF0500383F3118854
:1022E000BFF36F8FBFF34F8FBB6100BFFEE73B694A
:1022F000BB6B002B1ED07B6B002B1BD0BB6B7B62A0
:102300007B6A7A6B1A637B6A022283F8C1200023FE
:1023100003937B6A029307F1140301933B6B0093D1
:102320003B687A68B968F86800F050F8786A00F09D
:10233000F9F801E000237B617B6918462837BD4628
:1023400080BD80B58CB004AFF860B9603B601346C7
:10235000FB80FB889B00184601F00CFC78617B69D0
:10236000002B0ED0C42001F005FCF861FB69002BA6
:1023700003D0FB697A691A6305E0786901F0BEFC55
:1023800001E00023FB61FB69002B17D0FB690022F1
:1023900083F8C120FA8800230393FB690293FB6A48
:1023A0000193BB6A00933B68B968F86800F00EF8C7
:1023B000F86900F0B7F80123BB6102E04FF0FF338A
:1023C000BB61BB6918462037BD4680BD80B588B06B
:1023D00000AFF860B9607A603B603B6B186B7B685C
:1023E0009B001A46A52138F08FFE3B6B1A6B7B6869
:1023F00003F18043013B9B001344BB61BB6923F0A5
:102400000703BB61BB6903F00703002B0AD04FF041
:10241000500383F31188BFF36F8FBFF34F8F7B613E
:1024200000BFFEE73B6BBA695A64BB68002B1FD044
:102430000023FB6112E0BA68FB69134419783A6B18
:10244000FB69134434330A461A70BA68FB691344B3
:102450001B78002B06D0FB690133FB61FB690F2B56
:10246000E9D900E000BF3B6B002283F8432003E082
:102470003B6B002283F83420BB6A062B01D906236C
:10248000BB623B6BBA6ADA623B6BBA6A1A653B6B3A
:1024900000225A653B6B04331846FEF747FD3B6B41
:1024A00018331846FEF742FD3B6B3A6B1A61BB6A64
:1024B000C3F107023B6B9A613B6B3A6B5A623B6B11
:1024C00000229A653B6B0022C3F8BC203B6B0022C4
:1024D00083F8C0203B6B5C3360220021184638F043
:1024E00013FE3B6B0C4A1A663B6B0C4A5A663B6BFD
:1024F0000B4A9A663A68F968B869FEF7ABFD02467E
:102500003B6B1A60FB6A002B02D0FB6A3A6B1A60C5
:1025100000BF2037BD4680BD683C0408883C0408E5
:10252000483C040880B582B000AF7860FEF7BCFE7E
:102530002C4B1B6801332B4A13602B4B1B68002B61
:1025400009D1294A7B681360264B1B68012B10D1E7
:1025500000F0E2FD0DE0254B1B68002B09D1224B5A
:102560001B68DA6A7B68DB6A9A4202D81E4A7B687B
:1025700013601F4B1B6801331D4A13601C4B1A6804
:102580007B689A647B68DB6A01229A40194B1B685E
:102590001343184A13607B68DA6A13469B0013449E
:1025A0009B00154A1A447B68043319461046FEF70F
:1025B000CAFCFEF7A9FE0D4B1B68002B0ED00A4B80
:1025C0001B68DA6A7B68DB6A9A4207D20B4B4FF0D2
:1025D00080521A60BFF34F8FBFF36F8F00BF083771
:1025E000BD4680BDC41A0010C4190010D01A0010D6
:1025F000E01A0010CC1A0010C819001004ED00E019
:1026000080B584B000AF7860FEF74EFE7B68002B8B
:1026100002D1394B1B6800E07B68FB60FB68043328
:102620001846FEF7EDFC0346002B15D1FB68DA6A6D
:10263000324913469B0013449B000B441B68002B3C
:102640000AD1FB68DB6A012202FA03F3DA432C4B5E
:102650001B6813402A4A1360FB689B6A002B04D056
:10266000FB6818331846FEF7CBFC264B1B6801337A
:10267000244A1360204B1B68FA689A420BD1FB680E
:10268000043319462048FEF75EFC204B1B680133DB
:102690001E4A136009E01E4B1B68013B1C4A136075
:1026A000F86800F0A7FD00F0D9FDFEF72DFE194BEC
:1026B0001B68002B1BD0104B1B68FA689A4216D17E
:1026C000154B1B68002B0AD04FF0500383F3118881
:1026D000BFF36F8FBFF34F8FBB6000BFFEE70F4BA1
:1026E0004FF080521A60BFF34F8FBFF36F8F00BF60
:1026F0001037BD4680BD00BFC4190010C8190010B6
:10270000CC1A0010E01A0010981A0010AC1A001031
:10271000C41A0010D01A0010EC1A001004ED00E0EA
:1027200080B58AB000AF7860396000237B627B6837
:10273000002B0AD14FF0500383F31188BFF36F8F42
:10274000BFF34F8F7B6100BFFEE73B68002B0AD1D0
:102750004FF0500383F31188BFF36F8FBFF34F8F98
:102760003B6100BFFEE72A4B1B68002B0AD04FF0ED
:10277000500383F31188BFF36F8FBFF34F8FFB605C
:1027800000BFFEE700F07CF9224B1B683B627B68D0
:102790001B683A681344FB617B681B683A6A9A427B
:1027A0000BD27B681B68FA699A4211D2FA693B6ABC
:1027B0009A420DD901237B620AE07B681B68FA69A3
:1027C0009A4203D3FA693B6A9A4201D901237B6298
:1027D0007B68FA691A607B6A002B06D0FA693B6A4B
:1027E000D31A0021184601F05FF900F057F9B861DB
:1027F000BB69002B07D1084B4FF080521A60BFF322
:102800004F8FBFF36F8F00BF2837BD4680BD00BF1D
:10281000EC1A0010C81A001004ED00E080B584B076
:1028200000AF78600023FB607B68002B17D0134B50
:102830001B68002B0AD04FF0500383F31188BFF3BD
:102840006F8FBFF34F8FBB6000BFFEE700F018F93A
:102850000021786801F028F900F020F9F860FB68A1
:10286000002B07D1064B4FF080521A60BFF34F8FF9
:10287000BFF36F8F00BF1037BD4680BDEC1A00104C
:1028800004ED00E080B584B000AF7860FEF70CFD89
:102890007B68002B02D13C4B1B6800E07B68FB602F
:1028A000FB6804331846FEF7ABFB0346002B15D13B
:1028B000FB68DA6A354913469B0013449B000B44BE
:1028C0001B68002B0AD1FB68DB6A012202FA03F3C2
:1028D000DA432F4B1B6813402D4A1360FB689B6A39
:1028E000002B04D0FB6818331846FEF789FBFB6801
:1028F000043319462748FEF726FBFB6893F8C030DF
:10290000DBB2012B03D1FB68002283F8C020FEF765
:10291000FBFC214B1B68002B05D0FEF7C5FC00F02B
:102920009DFCFEF7F1FC184B1B68FA689A4227D110
:10293000194B1B68002B17D0184B1B68002B0AD0B3
:102940004FF0500383F31188BFF36F8FBFF34F8FA6
:10295000BB6000BFFEE7124B4FF080521A60BFF31E
:102960004F8FBFF36F8F0BE00A4B1A680D4B1B683C
:102970009A4203D1044B00221A6001E000F006FAEB
:1029800000BF1037BD4680BDC4190010C819001023
:10299000CC1A0010B01A0010D01A0010EC1A001057
:1029A00004ED00E0C41A001080B58AB004AF002323
:1029B000BB6000237B603A46391D07F108031846C7
:1029C00001F000FB39687B68BA680292019300232A
:1029D000009300230A4622492248FFF755FC03468C
:1029E000214A1360204B1B68002B02D001237B611E
:1029F00001E000237B617B69012B1DD14FF0500367
:102A000083F31188BFF36F8FBFF34F8F3B6100BF1C
:102A1000164B1B685C33164A1360164B4FF0FF329F
:102A20001A60154B01221A60144B00221A6003F041
:102A300011F9FEF797FB0EE07B69B3F1FF3F0AD176
:102A40004FF0500383F31188BFF36F8FBFF34F8FA5
:102A5000FB6000BFFEE700BF1837BD4680BD00BF6A
:102A6000D8CD0308E9300008E81A0010C419001096
:102A70002C070010E41A0010D01A0010C81A001019
:102A800080B400AF044B1B680133034A136000BFDE
:102A9000BD465DF8047B7047EC1A001080B584B029
:102AA00000AF0023FB600023BB60414B1B68002B81
:102AB0000AD14FF0500383F31188BFF36F8FBFF338
:102AC0004F8F3B6000BFFEE7FEF7EEFB384B1B6805
:102AD000013B374A1360364B1B68002B61D1354BE5
:102AE0001B68002B5DD02EE0334BDB68DB68FB609E
:102AF000FB6818331846FEF783FAFB680433184660
:102B0000FEF77EFAFB68DB6A01229A402B4B1B68BA
:102B100013432A4A1360FB68DA6A13469B00134486
:102B20009B00274A1A44FB68043319461046FEF7F7
:102B30000AFAFB68DA6A234B1B68DB6A9A4202D303
:102B4000214B01221A601C4B1B68002BCCD1FB6867
:102B5000002B01D000F082FB1C4B1B687B607B6864
:102B6000002B10D000F06AF80346002B02D0164B61
:102B700001221A607B68013B7B607B68002BF1D1EE
:102B8000124B00221A60104B1B68002B09D0012346
:102B9000BB600F4B4FF080521A60BFF34F8FBFF3F3
:102BA0006F8FFEF7B1FBBB6818461037BD4680BD7E
:102BB000EC1A0010C41A0010841A0010CC1A00106D
:102BC000C8190010C4190010D81A0010D41A001027
:102BD00004ED00E080B483B000AF054B1B687B6060
:102BE0007B6818460C37BD465DF8047B704700BF14
:102BF000C81A001080B485B000AF78607B68002BE5
:102C000002D10D4B1B6800E07B68FB60FB68002B6A
:102C10000AD14FF0500383F31188BFF36F8FBFF3D6
:102C20004F8FBB6000BFFEE7FB6834331846143794
:102C3000BD465DF8047B7047C419001080B586B0AE
:102C400000AF00237B61464B1B68002B78D1454BBE
:102C50001B6801333B61434A3B6913603B69002BAE
:102C600020D1414B1B681B68002B0AD04FF050034A
:102C700083F31188BFF36F8FBFF34F8F3B6000BFAB
:102C8000FEE7394B1B68FB60384B1B68364A136004
:102C9000364AFB681360364B1B680133344A1360B5
:102CA00000F0DCFA334B1B683A699A424DD32E4B45
:102CB0001B681B68002B04D12E4B4FF0FF321A60AB
:102CC00043E0294B1B68DB68DB68BB60BB685B6863
:102CD0007B603A697B689A4203D2264A7B6813601C
:102CE00033E0BB6804331846FEF78AF9BB689B6A79
:102CF000002B04D0BB6818331846FEF781F9BB6877
:102D0000DB6A01229A401C4B1B6813431A4A13606A
:102D1000BB68DA6A13469B0013449B00174A1A44A7
:102D2000BB68043319461046FEF70DF9BB68DA6A32
:102D3000134B1B68DB6A9A42B9D301237B61B6E768
:102D4000104B1B6801330F4A13600F4B1B68002B9D
:102D500001D001237B617B6918461837BD4680BDD1
:102D6000EC1A0010C81A00107C1A0010801A00100B
:102D7000DC1A0010E41A0010CC1A0010C819001058
:102D8000C4190010D41A0010D81A001080B586B0EB
:102D900000AF354B1B68002B03D0344B01221A6067
:102DA0005DE0324B00221A6002F054FF0346304AC5
:102DB00013602F4B1A682F4B1B689A4209D92E4B70
:102DC0001B68996D2A4A10682A4A1268821A0A44B6
:102DD0009A65274B1B68274A1360284B1B68FB60CA
:102DE000FB68B3FA83F3FB72FB7AC3F11F037B61C9
:102DF00023497A6913469B0013449B000B441B68CC
:102E0000002B0AD14FF0500383F31188BFF36F8F6B
:102E1000BFF34F8F7B6000BFFEE77A6913469B00CC
:102E200013449B00164A13443B613B695B685A6834
:102E30003B695A603B695A683B6908339A4204D13E
:102E40003B695B685A683B695A603B695B68DB6851
:102E5000094A1360084B1B685C330A4A136000BFC1
:102E60001837BD4680BD00BFEC1A0010D81A0010FC
:102E7000F41A0010F01A0010C4190010CC1A001037
:102E8000C81900102C07001080B584B000AF78601E
:102E900039607B68002B0AD14FF0500383F311880F
:102EA000BFF36F8FBFF34F8FFB6000BFFEE7074B91
:102EB0001B68183319467868FEF769F801213868ED
:102EC00000F0F2FD00BF1037BD4680BDC4190010F0
:102ED00080B586B000AF78607B68DB68DB683B61FB
:102EE0003B69002B0AD14FF0500383F31188BFF3E5
:102EF0006F8FBFF34F8FFB6000BFFEE73B69183356
:102F00001846FEF77DF81D4B1B68002B1CD13B6952
:102F100004331846FEF774F83B69DB6A01229A40D5
:102F2000174B1B681343164A13603B69DA6A134652
:102F30009B0013449B00134A1A443B69043319460F
:102F40001046FEF700F805E03B69183319460E48B5
:102F5000FDF7F9FF3B69DA6A0C4B1B68DB6A9A42A2
:102F600005D901237B610A4B01221A6001E000238D
:102F70007B617B6918461837BD4680BDEC1A00108E
:102F8000CC1A0010C8190010841A0010C4190010BF
:102F9000D81A001080B584B000AF78607B68002B31
:102FA0000AD14FF0500383F31188BFF36F8FBFF343
:102FB0004F8FFB6000BFFEE7FEF776F9064B1A68FD
:102FC0007B681A60054B1A687B685A60FEF79CF9AB
:102FD00000BF1037BD4680BDDC1A0010C81A0010B3
:102FE00080B483B000AF7860064B1A687B681A60C3
:102FF000054B1A687B685A6000BF0C37BD465DF808
:10300000047B7047DC1A0010C81A001080B588B025
:1030100000AF786039607B68002B0AD14FF0500315
:1030200083F31188BFF36F8FBFF34F8F3B6100BFF6
:10303000FEE73B68002B0AD14FF0500383F3118861
:10304000BFF36F8FBFF34F8FFB6000BFFEE7FEF74C
:103050002BF91D4B1B68BB617B685B68BA69D31A8F
:103060007B613B681B68B3F1FF3F02D10023FB612A
:1030700023E07B681A68154B1B689A4207D07B686F
:103080005B68BA699A4202D30123FB6115E03B6891
:103090001B687A699A420BD23B681A687B69D21A1C
:1030A0003B681A607868FFF79BFF0023FB6104E030
:1030B0003B6800221A600123FB61FEF725F9FB69DA
:1030C00018462037BD4680BDC81A0010DC1A001013
:1030D00080B400AF034B01221A6000BFBD465DF80B
:1030E000047B7047D81A001080B582B000AF7860BA
:1030F00000F052F8064B1B68012BF9D9054B4FF035
:1031000080521A60BFF34F8FBFF36F8FF0E700BF9D
:10311000C819001004ED00E080B582B000AF0023B4
:103120007B600CE07A6813469B0013449B00124AB4
:1031300013441846FDF7DAFE7B6801337B607B6839
:10314000062BEFD90D48FDF7D1FE0D48FDF7CEFE59
:103150000C48FDF7CBFE0C48FDF7C8FE0B48FDF709
:10316000C5FE0B4B054A1A600A4B054A1A6000BFA0
:103170000837BD4680BD00BFC8190010541A0010A2
:10318000681A0010841A0010981A0010B01A001063
:103190007C1A0010801A001080B582B000AF19E0D0
:1031A000FEF782F8104BDB68DB687B607B680433DA
:1031B0001846FDF725FF0D4B1B68013B0B4A1360BA
:1031C0000B4B1B68013B0A4A1360FEF79DF87868B9
:1031D00000F010F8064B1B68002BE1D100BF00BFC8
:1031E0000837BD4680BD00BF981A0010C41A0010F1
:1031F000AC1A001080B584B000AF78607B685C3397
:10320000184638F025F87B6893F8C130002B08D1B8
:103210007B681B6B184600F071FD786800F06EFD4E
:1032200018E07B6893F8C130012B03D1786800F077
:1032300065FD0FE07B6893F8C130022B0AD04FF098
:10324000500383F31188BFF36F8FBFF34F8FFB6081
:1032500000BFFEE700BF1037BD4680BD80B483B01D
:1032600000AF0C4B1B681B68002B04D10A4B4FF0BE
:10327000FF321A6008E0074B1B68DB68DB687B6085
:103280007B685B68044A136000BF0C37BD465DF87D
:10329000047B70477C1A0010E41A001080B483B0DD
:1032A00000AF054B1B687B607B6818460C37BD463A
:1032B0005DF8047B704700BFC419001080B483B070
:1032C00000AF0B4B1B68002B02D101237B6008E091
:1032D000084B1B68002B02D102237B6001E0002316
:1032E0007B607B6818460C37BD465DF8047B7047F1
:1032F000D01A0010EC1A001080B584B000AF7860CE
:103300007B68BB600023FB607B68002B69D0BB68D7
:10331000DA6A364B1B68DB6A9A4259D2BB689B69F2
:10332000002B06DB314B1B68DB6AC3F10702BB686D
:103330009A61BB685969BB68DA6A13469B001344FB
:103340009B002B4A134499423AD1BB680433184678
:10335000FDF756FE0346002B15D1BB68DA6A2449F7
:1033600013469B0013449B000B441B68002B0AD19F
:10337000BB68DB6A012202FA03F3DA431D4B1B68C8
:1033800013401C4A1360194B1B68DA6ABB68DA6287
:10339000BB68DB6A01229A40164B1B681343154A2F
:1033A0001360BB68DA6A13469B0013449B00104A03
:1033B0001A44BB68043319461046FDF7C4FD04E007
:1033C0000A4B1B68DA6ABB68DA620123FB6008E01B
:1033D000BB681A6D054B1B68DB6A9A4201D2012358
:1033E000FB60FB6818461037BD4680BDC41900104D
:1033F000C8190010CC1A001080B586B000AF7860F4
:103400007B683B6100237B617B68002B6ED03A4B6D
:103410001B683A699A420AD04FF0500383F311882F
:10342000BFF36F8FBFF34F8FFB6000BFFEE73B69B9
:103430005B6D002B0AD14FF0500383F31188BFF36B
:103440006F8FBFF34F8FBB6000BFFEE73B695B6DC3
:103450005A1E3B695A653B69DA6A3B691B6D9A42A1
:1034600044D03B695B6D002B40D13B690433184667
:10347000FDF7C6FD0346002B15D13B69DA6A1F49EB
:1034800013469B0013449B000B441B68002B0AD17E
:103490003B69DB6A012202FA03F3DA43184B1B682B
:1034A0001340174A13603B691A6D3B69DA623B6946
:1034B000DB6AC3F107023B699A613B69DB6A01225F
:1034C0009A400F4B1B6813430D4A13603B69DA6A3D
:1034D00013469B0013449B00084A1A443B6904337B
:1034E00019461046FDF72FFD01237B617B691846C5
:1034F0001837BD4680BD00BFC4190010C8190010A0
:10350000CC1A001080B588B000AF786039607B6855
:10351000BB6101237B617B68002B00F08380BB696A
:103520005B6D002B0AD14FF0500383F31188BFF37A
:103530006F8FBFF34F8FFB6000BFFEE7BB691B6D52
:103540003A689A4202D93B68FB6102E0BB691B6D95
:10355000FB61BB69DB6AFA699A4263D0BB695B6D48
:103560007A699A425ED1314B1B68BA699A420AD194
:103570004FF0500383F31188BFF36F8FBFF34F8F6A
:10358000BB6000BFFEE7BB69DB6A3B61BB69FA69F0
:10359000DA62BB699B69002B04DBFB69C3F107029C
:1035A000BB699A61BB6959693A6913469B00134428
:1035B0009B001F4A1344994234D1BB690433184617
:1035C000FDF71EFD0346002B15D1BB69DA6A1849C9
:1035D00013469B0013449B000B441B68002B0AD12D
:1035E000BB69DB6A012202FA03F3DA43114B1B6861
:1035F0001340104A1360BB69DB6A01229A400D4BED
:103600001B6813430B4A1360BB69DA6A13469B00BD
:1036100013449B00064A1A44BB69043319461046FA
:10362000FDF791FC00BF2037BD4680BDC4190010D6
:10363000C8190010CC1A001080B400AF074B1B68EB
:10364000002B04D0054B1B685A6D01325A65034BA1
:103650001B681846BD465DF8047B7047C41900100E
:1036600080B584B000AF78603960FDF71DFE204B57
:103670001B68D3F8BC30002B13D11D4B1B680122F3
:1036800083F8C0203B68002B0BD00121386800F084
:103690000BFA184B4FF080521A60BFF34F8FBFF3F5
:1036A0006F8FFDF731FEFDF7FFFD114B1B68D3F85F
:1036B000BC30FB60FB68002B0ED07B68002B05D074
:1036C0000B4B1B680022C3F8BC2005E0084B1B68AD
:1036D000FA68013AC3F8BC20054B1B68002283F846
:1036E000C020FDF711FEFB6818461037BD4680BDAF
:1036F000C419001004ED00E080B586B000AFF8609A
:10370000B9607A603B60FDF7CFFD294B1B6893F8E9
:10371000C030DBB2022B1CD0254B1B68D3F8BC1089
:10372000FA68D2430A40C3F8BC20214B1B6801222F
:1037300083F8C0203B68002B0BD00121386800F0D3
:10374000B3F91C4B4FF080521A60BFF34F8FBFF399
:103750006F8FFDF7D9FDFDF7A7FD7B68002B05D026
:10376000134B1B68D3F8BC207B681A60104B1B6896
:1037700093F8C030DBB2022B02D000237B610AE059
:103780000B4B1B68D3F8BC10BA68D2430A40C3F88D
:10379000BC2001237B61064B1B68002283F8C020FC
:1037A000FDF7B2FD7B6918461837BD4680BD00BFE6
:1037B000C419001004ED00E080B58AB000AFF860D5
:1037C000B9603B601346FB7101237B62FB68002BF1
:1037D0000AD14FF0500383F31188BFF36F8FBFF30B
:1037E0004F8FBB6100BFFEE7FB683B62FDF75CFDEE
:1037F0003B68002B04D03B6AD3F8BC203B681A60BE
:103800003B6A93F8C030FB773B6A022283F8C02002
:10381000FB79042B2DD801A252F823F0953800082B
:103820003138000843380008533800085D38000874
:103830003B6AD3F8BC20BB681A433B6AC3F8BC2080
:103840002BE03B6AD3F8BC305A1C3B6AC3F8BC205F
:1038500023E03B6ABA68C3F8BC201EE0FB7F022B62
:1038600004D03B6ABA68C3F8BC2016E000237B6230
:1038700013E03B6AD3F8BC30B3F1FF3F0CD04FF0FC
:10388000500383F31188BFF36F8FBFF34F8F7B61BA
:1038900000BFFEE700BF00E000BFFB7F012B39D176
:1038A0003B6A04331846FDF7ABFB3B6ADB6A012237
:1038B0009A401C4B1B6813431A4A13603B6ADA6A2E
:1038C00013469B0013449B00174A1A443B6A043377
:1038D00019461046FDF737FB3B6A9B6A002B0AD05E
:1038E0004FF0500383F31188BFF36F8FBFF34F8FF7
:1038F0003B6100BFFEE73B6ADA6A0C4B1B68DB6A80
:103900009A4207D90A4B4FF080521A60BFF34F8F8B
:10391000BFF36F8FFDF7F8FC7B6A18462837BD466A
:1039200080BD00BFCC1A0010C8190010C4190010C7
:1039300004ED00E080B58AB000AF786039607B6844
:10394000002B0AD14FF0500383F31188BFF36F8F20
:10395000BFF34F8FBB6100BFFEE7FDF785FD7B68BE
:103960007B62EFF311824FF0500383F31188BFF3B2
:103970006F8FBFF34F8F7A613B617B693B627B6ADC
:1039800093F8C030FB777B6A022283F8C0207B6A01
:10399000D3F8BC305A1C7B6AC3F8BC20FB7F012BD8
:1039A00045D17B6A9B6A002B0AD04FF0500383F30A
:1039B0001188BFF36F8FBFF34F8FFB6000BFFEE72F
:1039C000204B1B68002B1CD17B6A04331846FDF783
:1039D00017FB7B6ADB6A01229A401B4B1B6813436F
:1039E000194A13607B6ADA6A13469B0013449B00F2
:1039F000164A1A447B6A043319461046FDF7A3FAA7
:103A000005E07B6A183319461148FDF79CFA7B6A7A
:103A1000DA6A104B1B68DB6A9A4208D93B68002BB4
:103A200002D03B6801221A600B4B01221A603B6AEC
:103A3000BB60BB6883F3118800BF00BF2837BD4659
:103A400080BD00BFEC1A0010CC1A0010C81900107D
:103A5000841A0010C4190010D81A001080B584B060
:103A600000AF78607B68002B02D10E4B1B6800E032
:103A70007B68BB60FDF718FCBB6893F8C030DBB215
:103A8000022B06D1BB68002283F8C0200123FB6013
:103A900001E00023FB60FDF737FCFB681846103798
:103AA000BD4680BDC419001080B584B000AF7860F9
:103AB0003960294B1B68FB60284B1B680433184690
:103AC000FDF79EFA0346002B0BD1244B1B68DB6AE3
:103AD000012202FA03F3DA43214B1B681340204A08
:103AE00013607B68B3F1FF3F0AD13B68002B07D01E
:103AF0001A4B1B68043319461A48FDF724FA26E0CE
:103B0000FA687B681344BB60144B1B68BA685A6040
:103B1000BA68FB689A4209D2134B1A680F4B1B68AC
:103B2000043319461046FDF732FA10E00F4B1A68BD
:103B30000A4B1B68043319461046FDF728FA0C4B54
:103B40001B68BA689A4202D2094ABB68136000BF78
:103B50001037BD4680BD00BFC81A0010C419001040
:103B6000CC1A0010B01A0010801A00107C1A001035
:103B7000E41A001080B58AB000AF78600023FB61C2
:103B8000FEF77EFF584B1B68002B01D100F010F9A7
:103B9000564B1A687B681340002B40F08E807B6880
:103BA000002B1DD008227B6813447B607B6803F0E8
:103BB0000703002B14D07B6823F0070308337B60D6
:103BC0007B6803F00703002B0AD04FF0500383F308
:103BD0001188BFF36F8FBFF34F8F7B6100BFFEE78C
:103BE0007B68002B69D0424B1B687A689A4264D884
:103BF000404B3B623F4B1B687B6204E07B6A3B624D
:103C00007B6A1B687B627B6A5B687A689A4203D92D
:103C10007B6A1B68002BF1D1334B1B687A6A9A428E
:103C20004BD03B6A1B6808221344FB617B6A1A680D
:103C30003B6A1A607B6A5A687B68D21A08235B0069
:103C40009A421FD97A6A7B681344BB61BB6903F04F
:103C50000703002B0AD04FF0500383F31188BFF302
:103C60006F8FBFF34F8F3B6100BFFEE77B6A5A68DF
:103C70007B68D21ABB695A607B6A7A685A60B869F5
:103C800000F0F8F81A4B1A687B6A5B68D31A184A76
:103C90001360174B1A68184B1B689A4203D2144BD7
:103CA0001B68154A13607B6A5A68104B1B681A43DD
:103CB0007B6A5A607B6A00221A60FEF7EFFEFB699E
:103CC00003F00703002B0AD04FF0500383F3118851
:103CD000BFF36F8FBFF34F8FFB6000BFFEE7FB6941
:103CE00018462837BD4680BD001B00100C1B001075
:103CF000041B0010F81A0010081B001080B586B0D5
:103D000000AF78607B687B617B68002B48D008231C
:103D10005B427A6913447B617B693B613B695A680A
:103D2000214B1B681340002B0AD14FF0500383F343
:103D30001188BFF36F8FBFF34F8FFB6000BFFEE7AB
:103D40003B691B68002B0AD04FF0500383F31188A6
:103D5000BFF36F8FBFF34F8FBB6000BFFEE73B69C0
:103D60005A68114B1B681340002B19D03B691B6824
:103D7000002B15D13B695A680B4B1B68DB431A407B
:103D80003B695A60FEF77CFE3B695A68074B1B682B
:103D90001344064A1360386900F06CF8FEF77EFEA3
:103DA00000BF1837BD4680BD0C1B0010041B00105F
:103DB00080B485B000AF4FF49033BB60274BFB60FD
:103DC000FB6803F00703002B0CD0FB680733FB6094
:103DD000FB6823F00703FB60BA68FB68D31A1F4A2D
:103DE0001344BB60FB687B601D4A7B6813601C4BFF
:103DF00000225A607B68BA681344FB600822FB68A3
:103E00009B1AFB60FB6823F00703FB60FB68154A05
:103E10001360144B1B6800225A60124B1B6800226F
:103E20001A607B683B603B68FA68D21A3B685A604C
:103E30000C4B1A683B681A603B685B680A4A13605F
:103E40003B685B68094A1360094B4FF000421A60F7
:103E500000BF1437BD465DF8047B704700000020AA
:103E6000F81A0010001B0010081B0010041B0010A3
:103E70000C1B001080B485B000AF7860284BFB604D
:103E800002E0FB681B68FB60FB681B687A689A426B
:103E9000F7D8FB68BB60FB685B68BA6813447A6854
:103EA0009A4208D1FB685A687B685B681A44FB68D1
:103EB0005A60FB687B607B68BB607B685B68BA6844
:103EC0001A44FB681B689A4218D1FB681A68154BA4
:103ED0001B689A420DD07B685A68FB681B685B6858
:103EE0001A447B685A60FB681B681A687B681A6012
:103EF00008E00C4B1A687B681A6003E0FB681A68DC
:103F00007B681A60FA687B689A4202D0FB687A681C
:103F10001A6000BF1437BD465DF8047B704700BFD0
:103F2000F81A0010001B001080B489B000AF786050
:103F30007B68BB610023FB617B68002B39D00823C1
:103F40005B42BA691344BB61BB697B617B695A6898
:103F50001B4B1B681340002B0AD14FF0500383F317
:103F60001188BFF36F8FBFF34F8F3B6100BFFEE738
:103F70007B691B68002B0AD04FF0500383F3118834
:103F8000BFF36F8FBFF34F8FFB6000BFFEE77B690E
:103F90005A680B4B1B681340002B0AD07B691B68C7
:103FA000002B06D17B695A68054B1B68DB43134025
:103FB000FB61FB6918462437BD465DF8047B7047FA
:103FC0000C1B001080B485B000AFF860B9607A6057
:103FD000FB68074A1A60BB68064A1A607B684FF4A0
:103FE00080721A6000BF1437BD465DF8047B7047CD
:103FF000101B0010D41B001080B588B002AF034620
:10400000B9607A60FB8100237B61154B1B68002B34
:1040100020D1002204217868FDF746FB0346104AB0
:1040200013600F4B1B68002B14D0FA8900230193F7
:10403000BB68009300230B490B48FEF782F9034647
:10404000012B02D101237B6104E0054B1B6818465C
:10405000FDF77AFF7B6918461837BD4680BD00BF63
:10406000D41F0010E0CD03086D40000880B584B077
:1040700000AF78600023FB600A4B1B6807F10C015E
:104080004FF0FF321846FDF755FD0346012BF3D1E3
:10409000FB68184637F040F8FB681846FFF72EFE1D
:1040A000EAE700BFD41F00100FB4B0B58AB002AF6A
:1040B0000023FB610023BB6100237B603C4B1B683A
:1040C000002B0AD14FF0500383F31188BFF36F8F99
:1040D000BFF34F8FFB6000BFFEE78020FFF74AFD74
:1040E00003467B607B68002B5AD007F13403BB602A
:1040F0003049386BFCF7BCF80346002B21D02E4B1F
:104100003B61FFF7DBF80346012B04D00020FEF7EC
:1041100071FD786101E03B697B617D68274B1C681C
:10412000631C264A1360FEF755FD02467B69019326
:1041300000922346224A8021284637F083FA03461C
:10414000FB617A68FB69D018FB69C3F18001BB6829
:104150003A6B37F075FCB861BB69002B06DA0023B7
:10416000BB617A68FB69134400221A70BB69FA6963
:104170001344FB61FB69002B0ED00D4B1868391DF1
:1041800000230022FDF740FB0346012B08D07B688B
:104190001846FFF7B3FD03E07B681846FFF7AEFD56
:1041A00000BF2037BD46BDE8B04004B0704700BF37
:1041B000D41F0010E8CD0308ECCD0308D81F001071
:1041C000F4CD030880B582B000AF0346FB71FB79E4
:1041D000002B13D10D4B5B68002B11D10B4B0C4AFC
:1041E0001A600120FDF7DDFA0346084A5360074BC9
:1041F00000229A60054B0022DA6001E000BF00E077
:1042000000BF00BF0837BD4680BD00BFDC1F0010E7
:104210004C4E001080B584B000AF03463A60FB718D
:104220000B46BB80FB79002B5BD1FB791B012F4A2E
:104230001344FB60FB685B68002B52D0FB685B6833
:104240001A2211461846FDF755FD0346012B48D1A9
:10425000FDF72AF8FFF722F80246FB689A60002172
:104260000120FFF7FDF9FB6818683B681A683B6896
:104270005B689BB2B98802F0B9FE0346FB72FDF79A
:1042800043F8FB7A002B04D1192319460120FFF7CC
:10429000E7F9FDF709F8FFF701F80246FB68DA6075
:1042A00000210120FFF7DCF9FB6818683B689A6879
:1042B0003B68DB689BB2B98802F088FF0346FB725B
:1042C000FDF722F8FB7A002B04D1192319460120AF
:1042D000FFF7C6F9FB685868002300220021FDF7AC
:1042E00093FA00BF1037BD4680BD00BFDC1F001031
:1042F00080B584B000AF03463A60FB710B46BB80CB
:10430000FB79002B3AD1FB791B011E4A1344FB6059
:10431000FB685B68002B31D0FB685B681A22114692
:104320001846FDF7E7FC0346012B27D1FCF7BCFF3D
:10433000FEF7B4FF0246FB689A6000210120FFF7F8
:104340008FF9FB6818683B681A683B685B689BB22A
:10435000B98802F04BFE0346FB72FCF7D5FFFB7AEF
:10436000002B04D1192319460120FFF779F9FB68C6
:104370005868002300220021FDF746FA00BF1037DD
:10438000BD4680BDDC1F001080B586B000AF7860F0
:104390000023FB6000237B6131E0224A7B691B0123
:1043A00013441B687A689A4226D11E4A7B691B0116
:1043B000134408331B68002B0AD14FF0500383F3DA
:1043C0001188BFF36F8FBFF34F8F3B6100BFFEE7D4
:1043D000144A7B691B01134408331B6807F10C0264
:1043E00011461846FFF7A6FA0E4A7B691B011344D3
:1043F000083300221A6005E07B6901337B617B6929
:10440000002BCAD0FB68002B07D0074B4FF080521F
:104410001A60BFF34F8FBFF36F8F00BF1837BD46D1
:1044200080BD00BFDC1F001004ED00E080B586B049
:1044300000AF78600023FB6000237B6131E0224AFB
:104440007B691B0113441B687A689A4226D11E4A75
:104450007B691B0113440C331B68002B0AD14FF0FE
:10446000500383F31188BFF36F8FBFF34F8F3B610E
:1044700000BFFEE7144A7B691B0113440C331B6821
:1044800007F10C0211461846FFF754FA0E4A7B69F1
:104490001B0113440C3300221A6005E07B690133D1
:1044A0007B617B69002BCAD0FB68002B07D0074BD0
:1044B0004FF080521A60BFF34F8FBFF36F8F00BF72
:1044C0001837BD4680BD00BFDC1F001004ED00E0C2
:1044D00080B584B000AFF860B9607A603B60FEF7E9
:1044E000CFFA074B00221A607B6803F00303054AEA
:1044F0001360FEF7D3FABB6818461037BD4680BD7F
:10450000EC1F0010F01F001080B483B000AF786083
:104510003960002318460C37BD465DF8047B7047B0
:1045200080B586B000AFF860B9607A603B60002368
:104530007B6101F09BFF1B4B9B691A4A43F00043D0
:104540009361184B4CF2FA321A61174B1B68002B1F
:1045500002D100F089F878617B69002B04D13968B9
:10456000786800F0EFF8786101F0A2FF7B69002B1A
:1045700005DAFB6805221A604FF0FF330DE07B6916
:10458000002B05D1FB681C221A604FF0FF3304E0BA
:104590007A693B68934228BF134618461837BD46D0
:1045A00080BD00BF00200240EC1F001080B489B025
:1045B00000AFF860B9607A603B600023FB617B6804
:1045C000BB61244B1B689BB24FF6FF72934209D02C
:1045D000204B1B689A02204B134003F1FF6303F545
:1045E000FD2300E01D4B1E4A126813447B610AE064
:1045F0007A69FB691A44B969FB690B4412781A702D
:10460000FB690133FB61134B1B689BB24FF6FF72D2
:10461000934209D00F4B1B689A020F4B134003F1D2
:104620000063013B1A4600E00E4A7B699A4203D9B7
:10463000FA693B689A42DBD3094B1A68FB69134459
:10464000074A1360FB6918462437BD465DF8047BB2
:10465000704700BFE075FF1F00FCFF0300E80F0874
:10466000EC1F0010FFFF0F0880B58AB000AF314B80
:104670001B689BB24FF6FF72934209D02D4B1B680B
:104680009A022D4B134003F1FF6303F5FD2300E075
:104690002A4B184600F0C2F87862264B1B689BB282
:1046A0004FF6FF72934208D0224B1B689A02224BAE
:1046B000134003F10063013B00E0214B184600F07A
:1046C000ADF802467B6AD31A01333B62194B1B6873
:1046D0009BB24FF6FF72934209D0164B1B689A02A9
:1046E000154B134003F1FF6303F5FD2300E0134B6B
:1046F000184600F0D5F8F86100237B6100237B6049
:10470000FB69BB607B6AFB603B6A3B6107F114029B
:104710003B1D1146184601F095FF0346FB76FB7ED4
:10472000002B01D1002301E04FF0FF33184628375A
:10473000BD4680BDE075FF1F00FCFF0300E80F08C9
:10474000FFFF0F0880B586B000AF786039600123A5
:10475000FB722D4B1B689BB24FF6FF72934209D040
:10476000294B1B689A02294B134003F1FF6303F5A1
:10477000FD2300E0264B274A126813447B617B68C7
:104780003B610023FB6014E03B69D3E900237969B6
:10479000002001F0FFFD0346FB72FB7A002B21D1C4
:1047A0007B6908337B61FB680833FB603B69083336
:1047B0003B61154B1B689BB24FF6FF72934208D0CA
:1047C000114B1B689A02114B134003F10063013B2C
:1047D00000E0114B7A69934205D9FA683B689A4226
:1047E000D2D300E000BFFA683B68934228BF13466B
:1047F000FB60084B1A68FB681344064A1360FB68A9
:1048000018461837BD4680BDE075FF1F00FCFF034A
:1048100000E80F08EC1F0010FFFF0F0880B485B000
:1048200000AF78600023FB601A4B1B689BB24FF609
:10483000FF72934208D0174B1B689B025A08164B15
:10484000134003F1006300E0144B7A68934205D9EA
:104850007B6803F17843DB0AFB6014E00D4B1B68B7
:104860009BB24FF6FF72934208D00A4B1B689B0223
:104870005A08094B134003F1006300E0074B7A68C4
:10488000D31ADB0AFB60FB6818461437BD465DF897
:10489000047B7047E075FF1F00FEFF010000080861
:1048A00080B485B000AF78600023FB601F4B1B68AD
:1048B00003F48073002B19D11D4B1B689BB24FF67C
:1048C000FF72934208D01A4B1B689B025A08194B7F
:1048D000134003F1006300E0174B7A68934202D95A
:1048E0000123FB601BE00223FB6018E0104B1B68F8
:1048F0009BB24FF6FF72934208D00D4B1B689B0290
:104900005A080C4B134003F1006300E00A4B7A682D
:10491000934202D90223FB6001E00123FB60FB68A4
:1049200018461437BD465DF8047B7047000001400F
:10493000E075FF1F00FEFF010000080880B485B08D
:1049400000AFF860B9607A603B60BB681846143706
:10495000BD465DF8047B704780B483B000AF7860DB
:104960003960002318460C37BD465DF8047B70475C
:1049700080B588B000AFF860B9607A603B60002312
:10498000FB613B68002B01D1002370E03B683F33A3
:104990009B09BB61BB691033BB61BB694FF47A7281
:1049A00002FB03F3344AA2FB03239B097B61334BD5
:1049B0001B68002B0ED1314B01221A600120FCF73D
:1049C000F0FE03462E4A13602D4B1B682D491846F6
:1049D000FDF706FC2A4B1B68002B43D0284B1A68B6
:1049E0007B69013319461046FDF784F90346012B14
:1049F00038D1FCF759FCFEF751FC0346224A1360FC
:104A000000210120FEF72CFE204B01221A603B689A
:104A10009BB2194678680BF083FB0346FB74FCF7E6
:104A200073FCFB7C002B10D179690120FEF718FE86
:104A3000F861FB69002B08D0114B18680023002295
:104A40000021FCF7E1FE3B6811E00D4B18680023E4
:104A500000220021FCF7D8FEFB6810221A604FF0FC
:104A6000FF3304E0FB682E221A604FF0FF33184634
:104A70002037BD4680BD00BFD34D6210002000101E
:104A8000FC1F001068F60308F41F0010042000103B
:104A900080B582B000AF00237B600E4B1B68012BFA
:104AA00009D10C4B00221A600B4B1B683A1D1146B2
:104AB0001846FEF73FFF7B68002B07D0074B4FF0EF
:104AC00080521A60BFF34F8FBFF36F8F00BF08375C
:104AD000BD4680BD04200010F41F001004ED00E06E
:104AE00080B584B000AFF860B9607A603B603B6825
:104AF0003F2B05D8FB6869221A604FF0FF331DE099
:104B0000FCF7D2FBFEF7CAFB03460E4A13600021F6
:104B10000120FEF7A5FD0C4B01221A6079680B48B5
:104B200009F05DFC094809F09DFCFCF7EDFB4FF036
:104B3000FF310120FEF794FD054B1B681846103726
:104B4000BD4680BDF81F001008200010DC4F00108B
:104B50000C20001080B584B000AF78600023FB60AB
:104B60000E4A7B6813600E4B1B68012B07D10D4B5F
:104B70001B6807F10C0211461846FEF7DBFEFB68C6
:104B8000002B07D0084B4FF080521A60BFF34F8FB5
:104B9000BFF36F8F00BF1037BD4680BD0C200010E3
:104BA00008200010F81F001004ED00E080B582B06E
:104BB00000AF78600B46FB707B68FA781A70FB7860
:104BC0001846FFF7FFFA786800F070F87B6818461F
:104BD0000837BD4680BD80B588B000AF78600B4611
:104BE000FB700023FB77FB1CFB6001233B6107F19B
:104BF0001F037B610123BB617B681B7807F10C02FB
:104C0000BF211846FFF706FBFB7F18462037BD463D
:104C100080BD80B588B000AF78600B46FB70002384
:104C2000BB83FB7863F07F03DBB2FB7607F11B03EA
:104C3000BB600123FB6007F11C033B6102237B6126
:104C40007B681B7807F10802BF211846FFF7E2FADC
:104C50007B7F1B021AB23B7F1BB213431BB2184669
:104C60002037BD4680BD80B588B000AF78600B4668
:104C7000FB701346BB700023BB83FB783B77BB788C
:104C80007B7707F11C03FB6002233B6100237B6100
:104C90000023BB617B681B7807F10C02BE2118461C
:104CA000FFF726FB00BF2037BD4680BD80B582B030
:104CB00000AF786035217868FFF78DFF03461A460C
:104CC0007B681A7232217868FFF785FF03461A461F
:104CD0007B681A7133217868FFF77DFF03461A4617
:104CE0007B685A717B681B7A1B021BB203F440730A
:104CF0001AB27B681B791BB213431AB27B689A8283
:104D00007B681B7A9B011BB203F440731AB27B6869
:104D10005B791BB213431AB27B68DA823C21786854
:104D2000FFF777FF03461A467B681A823E217868B0
:104D3000FFF76FFF03461A467B685A823021786876
:104D4000FFF749FF03461A467B689A70312178685D
:104D5000FFF741FF03461A467B68DA703621786810
:104D6000FFF757FF03461A467B685A813A21786855
:104D7000FFF74FFF03461A467B68DA8100BF08370A
:104D8000BD4680BD80B485B000AF78600B467B80A7
:104D9000B7F902307A68B2F910209B1A7A68B2F932
:104DA000162011467A68B2F914208A1A02FB03F31E
:104DB000FB607B68B3F912301A467B68B3F9103098
:104DC000D31AFA6892FBF3F39AB27B68B3F9143002
:104DD0009BB213449BB27B81B7F90A30DB107B8115
:104DE000B7F90A3018461437BD465DF8047B7047A2
:104DF00080B485B000AF78600B467B80B7F9023095
:104E00007A68B2F90A209B1A7A68D27811467A68D1
:104E100092788A1A02FB03F3FB607B68B3F90E30C9
:104E20001A467B68B3F90A30D31AFA6892FBF3F397
:104E30009AB27B689B789BB213449BB27B81B7F993
:104E40000A305B107B81B7F90A30642BA8BF64235A
:104E50007B81B7F90A3023EAE3737B817B891846AB
:104E60001437BD465DF8047B704780B584B000AF51
:104E700078600B46FB707B68FA1C1146184600F000
:104E8000C0F80023FB73786800F0A2F80346002BFB
:104E90005BD07B68184600F0CFF803461021184617
:104EA000FFF799FE0346FB73FB7B23F03F03FB7385
:104EB000FB7B43F00303FB73FB7B43F01803FB73A3
:104EC0007B68184600F0B8F8FB7B1A461021FFF704
:104ED000CAFE7B68184600F0AFF803462121184649
:104EE000FFF779FE0346FB73FB7B03F07C03FB7348
:104EF0007B68184600F0A0F8FB7B1A462121FFF7DB
:104F0000B2FE7B68184600F097F803462021184649
:104F1000FFF761FE0346FB73FB7B03F07803FB7333
:104F2000FB7B43F00403FB73FB7B43F00103FB7348
:104F3000FB7B63F07F03FB737B68184600F07CF813
:104F4000FB7B1A462021FFF78EFE7B681846103740
:104F5000BD4680BD80B584B000AF78607B681846E0
:104F600000F06AF803462A211846FFF752FE03466E
:104F7000FB817B68184600F05FF80246B7F90E30F7
:104F800019461046FFF7FEFE034618461037BD4689
:104F900080BD80B584B000AF78607B68184600F0B3
:104FA0004BF8034628211846FFF733FE0346FB81E2
:104FB0007B68184600F040F80246B7F90E301946F3
:104FC0001046FFF715FF034618461037BD4680BD53
:104FD00080B584B000AF78607B68184600F02CF88C
:104FE00003460F211846FFF7F6FD0346FB73FB7BD4
:104FF000BC2B0CBF01230023DBB218461037BD4683
:1050000080BDB0B582B000AF78603960386800F01C
:105010002CF803461C78182034F0E6FF03461D46A2
:1050200021462846FFF7C2FD2946786800F028F897
:1050300078680837BD46B0BD80B582B000AF7860F3
:10504000786800F02CF8034618460837BD4680BD46
:1050500080B582B000AF78607B68184600F02CF80D
:10506000034618460837BD4680BD80B483B000AF04
:1050700078607B6818460C37BD465DF8047B704746
:1050800080B582B000AF786039607B6839681846B7
:1050900000F01FF87B6818460837BD4680BD80B514
:1050A00082B000AF78607B68184600F026F80346AF
:1050B00018460837BD4680BD80B582B000AF786025
:1050C0007B68184600F027F8034618460837BD46A7
:1050D00080BD90B583B000AF786039607B681846BA
:1050E00000F025F83C687868FFF7B2FF03461C60C3
:1050F0007B6818460C37BD4690BD80B582B000AFC6
:1051000078607B68184600F01FF803461B68184655
:105110000837BD4680BD80B582B000AF7860786842
:1051200000F01FF8034618460837BD4680BD80B51D
:1051300082B000AF78607B68184600F01FF87B688B
:1051400018460837BD4680BD80B582B000AF786094
:105150007B68184600F022F8034618460837BD461B
:1051600080BD80B582B000AF78607B68184600F0E3
:1051700021F8034618460837BD4680BD80B582B089
:1051800000AF7860786800F020F87B68184600F07F
:1051900028F87B6818460837BD4680BD80B582B0C8
:1051A00000AF7860786800F02AF8034618460837A0
:1051B000BD4680BD80B483B000AF78607B68184680
:1051C0000C37BD465DF8047B704780B582B000AFF8
:1051D0007860786800F020F87B6818460837BD468C
:1051E00080BD80B483B000AF78607B6800221A6015
:1051F0007B6818460C37BD465DF8047B704780B568
:1052000082B000AF78607B68184600F010F8034663
:1052100018460837BD4680BD80B483B000AF7860C3
:105220007B6818460C37BD465DF8047B704780B438
:1052300083B000AF78607B6818460C37BD465DF8D8
:10524000047B704780B582B000AF78600B46FB707E
:105250007B68FA781A70FB781846FEF7B3FF786817
:1052600000F08DF87B6818460837BD4680BD80B5D4
:1052700088B000AF78600B46FB700023FB77FB1C07
:10528000FB6001233B6107F11F037B610123BB61CD
:105290007B681B7807F10C02BB211846FEF7BAFFAA
:1052A000FB7F18462037BD4680BD80B588B000AF73
:1052B000F8607A603B600B46FB7207F10B033B61C1
:1052C00001237B617B68BB613B68FB61FB681B78EA
:1052D00007F11002BB211846FEF79CFF00BF2037E4
:1052E000BD4680BD80B588B000AF78600B46FB70CE
:1052F0000023BB83FB7863F07F03DBB2FB7607F10F
:105300001B03BB600123FB6007F11C033B6102230D
:105310007B617B681B7807F10802BB211846FEF70A
:1053200079FF7B7F1B021AB23B7F1BB213431BB278
:1053300018462037BD4680BD80B588B000AF786084
:105340000B46FB701346BB700023BB83FB783B7797
:10535000BB787B7707F11C03FB6002233B610023D2
:105360007B610023BB617B681B7807F10C02BA21CB
:105370001846FEF7BDFF00BF2037BD4680BD80B593
:1053800082B000AF786018217868FFF7ABFF034662
:105390001A467B685A8000BF0837BD4680BD80B57D
:1053A00084B000AF78600B46FB707B68FA1C114636
:1053B000184600F096F80023FB73786800F078F840
:1053C0000346002B3FD07B68184600F0A5F8034643
:1053D00011211846FFF74BFF0346FB73FB7B03F0DD
:1053E0000203FB73FB7B43F01003FB737B681846DF
:1053F00000F092F8FB7B1A461121FFF79DFF7B68B6
:10540000184600F089F8034610211846FFF72FFFD1
:105410000346FB73FB7B23F07F03FB73FB7B43F0B3
:105420000203FB73FB7B43F01003FB73FB7B43F036
:105430000803FB737B68184600F06EF8FB7B1A4686
:105440001021FFF779FF7B6818461037BD4680BDF5
:1054500080B584B000AF78600023FB607B6818469D
:1054600000F05AF807F10C0203232821FFF71DFF73
:10547000FB6803F40003002B03D0FB6843F07F4379
:10548000FB60FB681B13FB60FB68B3F5827FB8BF52
:105490004FF48273FB60FB6840F2EC429342A8BF7A
:1054A0001346FB60FB689BB218461037BD4680BDB3
:1054B00080B584B000AF78607B68184600F02CF8A7
:1054C00003460F211846FFF7D2FE0346FB73FB7B12
:1054D000B12B0CBF01230023DBB218461037BD46A9
:1054E00080BDB0B582B000AF786039603868FFF732
:1054F000BCFD03461C78042034F076FD03461D46AF
:1055000021462846FFF79EFE2946786800F01DF8E0
:1055100078680837BD46B0BD80B582B000AF78600E
:10552000786800F021F8034618460837BD4680BD6C
:1055300080B582B000AF78607B68184600F021F833
:10554000034618460837BD4680BD80B582B000AF1F
:10555000786039607B683968184600F01FF87B680E
:1055600018460837BD4680BD80B582B000AF786070
:105570007B68184600F026F8034618460837BD46F3
:1055800080BD80B582B000AF78607B68184600F0BF
:1055900027F8034618460837BD4680BD90B583B04E
:1055A00000AF786039607B68184600F025F83C68E9
:1055B0007868FFF7BDFF03461C607B6818460C3710
:1055C000BD4690BD80B582B000AF78607B6818465C
:1055D00000F01FF803461B6818460837BD4680BD1B
:1055E00080B582B000AF7860786800F01FF803469D
:1055F00018460837BD4680BD80B582B000AF7860E0
:105600007B68184600F01FF87B6818460837BD46CF
:1056100080BD80B582B000AF78607B68184600F02E
:1056200022F8034618460837BD4680BD80B582B0D3
:1056300000AF78607B68184600F021F803461846F2
:105640000837BD4680BD80B582B000AF786078680D
:1056500000F020F87B68184600F028F87B681846B0
:105660000837BD4680BD80B582B000AF78607868ED
:1056700000F02AF8034618460837BD4680BD80B4BE
:1056800083B000AF78607B6818460C37BD465DF884
:10569000047B704780B582B000AF7860786800F016
:1056A00020F87B6818460837BD4680BD80B483B0BB
:1056B00000AF78607B6800221A607B6818460C3760
:1056C000BD465DF8047B704780B582B000AF78605E
:1056D0007B68184600F010F8034618460837BD46A8
:1056E00080BD80B483B000AF78607B6818460C370B
:1056F000BD465DF8047B704780B483B000AF78602E
:105700007B6818460C37BD465DF8047B7047000087
:1057100080B582B000AF78607B68002B23D07B68B7
:10572000B3F90E305BB2032B1FD801A252F823F05D
:1057300041570008535700086B5700086B57000883
:105740000C4B1B685868402301220B4935F070FE52
:105750000CE0084B1B6898684FF4806300220749EF
:1057600035F066FE02E000BF00E000BF0837BD462E
:1057700080BD00BF2C07001078520010B8520010F6
:1057800090B589B000AFF860B9607A603B600023E3
:10579000FB614FF0FF33BB614FF0FF337B61294A60
:1057A000FB6952F823301968264AFB6952F8233006
:1057B0005B681A46B86835F071FC0346002B02D1CD
:1057C000FB69BB6107E0FB695A1CFA611D4A52F88C
:1057D0002330002BE3D1BB69B3F1FF3F29D0FDF7A4
:1057E0004FF9194ABB6952F82330002B1BD1164AD6
:1057F000BB69012142F82310FDF750F9114ABB693A
:1058000052F823309C683B687A68B969F868A04709
:1058100078617B69002B04DA0B4ABB69002142F8EE
:1058200023107B690AE0FDF739F9FB680D221A6045
:1058300002E0FB6813221A604FF0FF33184624374A
:10584000BD4690BD040400101020001080B582B049
:1058500000AF78603960FDF713F90F4A3B6852F8E2
:105860002330012B10D10C4A3B68002142F8231051
:10587000FDF714F9094A3B6852F82330DB683968B0
:1058800078689847034602E0FDF708F900231846B8
:105890000837BD4680BD00BF102000100404001072
:1058A00090B585B000AFF860B9607A603B60074A98
:1058B000BB6852F823301C693B687A68B968F8689D
:1058C000A047034618461437BD4690BD0404001097
:1058D00090B585B000AFF860B9607A603B60074A68
:1058E000BB6852F823305C693B687A68B968F8682D
:1058F000A047034618461437BD4690BD0404001067
:1059000080B584B000AFF860B9607A605822002199
:10591000786835F0F9FB7B684FF400525A60BB6839
:10592000032B07D17B684FF400425A607B684FF429
:1059300000621A61002318461037BD4680BD80B44E
:1059400085B000AFF860B9607A603B60FB681622F2
:105950001A604FF0FF3318461437BD465DF8047BDC
:10596000704780B483B000AF786039600123184677
:105970000C37BD465DF8047B704780B582B000AF40
:10598000786039603868FEF7F5F80346184608373E
:10599000BD4680BD80B588B000AFF860B9607A6060
:1059A0007868FEF7E7F8F861BB68002B14D0FB6954
:1059B000002B11D0B868FEF7B7FAB861BA697B68F6
:1059C000934228BF13467B617A69B968F86935F05C
:1059D00073FBB868FEF792F9FB6918462037BD469D
:1059E00080BD80B586B000AFF860B9607A60BB68F2
:1059F0007A6802FB03F37B617869FEF7BBF83861D4
:105A00003B69002B04D07A690021386935F07CFBB2
:105A10003B6918461837BD4680BD000080B582B08E
:105A200000AF78603960044B1B783868FEF766F980
:105A30000837BD4680BD00BF1804001080B483B095
:105A400000AF78607B68D3E90023104619460C3715
:105A5000BD465DF8047B704780B483B000AF7860CA
:105A600039603B68D3E900237968C1E900237B688A
:105A700018460C37BD465DF8047B704780B588B08A
:105A800000AF7860FDF7A6F80346FB6107F11C0242
:105A900007F110031146184600F02CF807F1100228
:105AA00007F108031146184600F00AF807F1080349
:105AB0001946786800F032F878682037BD4680BD16
:105AC00080B584B000AF7860396007F108033968A9
:105AD000184600F035F807F108031846FFF7AEFF47
